:100000000C94D8010C9400020C9400020C94000291
:100010000C9400020C9400020C9400020C94000258
:100020000C9400020C9400020C9400020C94000248
:100030000C9400020C9400020C9400020C94000238
:100040000C94AE060C9400020C948D050C9467057C
:100050000C9400020C9400020C9400020C94000218
:100060000C9400020C9400026364696E6F707375E7
:1000700078585B0020202020205257313939302019
:1000800020202020002069427574746F6E20436F19
:10009000706965720069427574746F6E20436F7089
:1000A0006965722052573139393000204E6F202057
:1000B00020202000205965732020202000577269DD
:1000C000746520746F2063656C6C3A200053617610
:1000D000656420696E20454550524F4D00202D3EED
:1000E0002069427574746F6E20494420736176658F
:1000F00064004D656D6F72792043656C6C3A200029
:10010000005EBCE2613FDD83C29C7E20A3FD1F41F7
:100110009DC3217FFCA2401E5F01E3BD3E6082DCE7
:10012000237D9FC1421CFEA0E1BF5D0380DE3C62D7
:10013000BEE0025CDF81633D7C22C09E1D43A1FFC7
:100140004618FAA427799BC584DA3866E5BB5907B7
:10015000DB856739BAE406581947A5FB7826C49AA7
:10016000653BD987045AB8E6A7F91B45C6987A2497
:10017000F8A6441A99C7257B3A6486D85B05E7B987
:100180008CD2306EEDB3510F4E10F2AC2F7193CD77
:10019000114FADF3702ECC92D38D6F31B2EC0E5067
:1001A000AFF1134DCE90722C6D33D18F0C52B0EE57
:1001B000326C8ED0530DEFB1F0AE4C1291CF2D7347
:1001C000CA947628ABF517490856B4EA6937D58B37
:1001D0005709EBB536688AD495CB2977F4AA481627
:1001E000E9B7550B88D6346A2B7597C94A14F6A817
:1001F000742AC896154BA9F7B6E80A54D7896B3507
:100200006661696C65642E007061737365642E00AD
:100210005465737420004661696C65642063656C85
:100220006C3A2000546573742063686172206865BD
:10023000782076616C75653A200020427974657388
:1002400000454550524F4D3A20004572726F720082
:10025000536176656420696E2063656C6C200020B4
:10026000736176656400202D3E2069427574746F59
:100270006E20494420004D656D6F72792043656C96
:100280006C3A20004572726F72005361766564208B
:10029000696E2063656C6C20002073617665640074
:1002A000202D3E2069427574746F6E2049442000F1
:1002B0004D656D6F72792043656C6C3A20006B65FB
:1002C0007973617665006B6579666F7263657361DA
:1002D0007665006D656D7465737400417474616357
:1002E0006820746865206B6579002020202020201C
:1002F00020202020202020202020004175746F2005
:100300007265636F76657279206B65792049442048
:100310006F6E20626F6F74206465766963652E2E40
:100320002E00202D3E2069427574746F6E20494462
:100330003A20004D656D6F72792043656C6C3A20F0
:100340000053656C65637465642063656C6C3A206A
:100350000000000000240027002A00000000002503
:100360000028002B00000000080002010000030428
:10037000070000000000000000000000002300262D
:10038000002900040404040404040402020202021A
:100390000203030303030301020408102040800149
:1003A000020408102001020408102000A613A21362
:1003B00011241FBECFEFD8E0DEBFCDBF11E0A0E01B
:1003C000B1E0EEEDF6E302C005900D92A838B1075A
:1003D000D9F722E0A8E8B1E001C01D92A238B20727
:1003E000E1F711E0C7EDD1E004C02197FE010E94C2
:1003F000E415C63DD107C9F70E94530C0C94621B4B
:100400000C940000CF92DF92EF92FF920F931F9314
:10041000CF93DF936C017A018B01C0E0D0E0CE1561
:10042000DF0589F0D8016D918D01D601ED91FC9128
:100430000190F081E02DC6010995892B11F47E0110
:1004400002C02196ECCFC701DF91CF911F910F9190
:10045000FF90EF90DF90CF900895FC01538D448D75
:10046000252F30E0842F90E0821B930B541710F05F
:10047000CF96089501970895FC01918D828D98176C
:1004800061F0828DDF01A80FB11D5D968C91928D78
:100490009F5F9F73928F90E008958FEF9FEF089575
:1004A000FC01918D828D981731F0828DE80FF11D3E
:1004B000858D90E008958FEF9FEF0895FC01918D59
:1004C000228D892F90E0805C9F4F821B91098F7352
:1004D0009927089585EB91E00E945E0221E0892B27
:1004E00009F420E0822F0895FC01848DDF01A80F1C
:1004F000B11DA35ABF4F2C91848D90E001968F734C
:100500009927848FA689B7892C93A089B1898C916A
:1005100080648C93938D848D981306C00288F38930
:10052000E02D80818F7D80830895EF92FF920F935D
:100530001F93CF93DF93EC0181E0888F9B8D8C8D8F
:10054000981305C0E889F989808185FD24C0F62EBD
:100550000B8D10E00F5F1F4F0F731127E02E8C8D56
:10056000E8120CC00FB607FCFACFE889F989808140
:1005700085FFF5CFCE010E947402F1CF8B8DFE0175
:10058000E80FF11DE35AFF4FF0820B8FEA89FB89D8
:100590008081806207C0EE89FF896083E889F989DC
:1005A00080818064808381E090E0DF91CF911F9112
:1005B0000F91FF90EF900895CF93DF93EC01888D1A
:1005C0008823C9F0EA89FB89808185FD05C0A88957
:1005D000B9898C9186FD0FC00FB607FCF5CF8081DD
:1005E00085FFF2CFA889B9898C9185FFEDCFCE0127
:1005F0000E947402E7CFDF91CF91089580E090E0F0
:10060000892B29F00E946A0281110C940000089540
:100610003FB7F8948091A9019091AA01A091AB01F4
:10062000B091AC0126B5A89B05C02F3F19F00196EB
:10063000A11DB11D3FBFBA2FA92F982F8827820F68
:10064000911DA11DB11DBC01CD0142E0660F771FB8
:10065000881F991F4A95D1F70895089580E090E08A
:1006600008950E94E117CF93DF93EC01888199816F
:10067000009711F00E947F16198218821D821C8239
:100680001B821A82DF91CF910895FC0180819181B4
:10069000009711F00C949C1460E070E0CB01089579
:1006A000AF92BF92CF92DF92EF92FF920F931F9380
:1006B000CF93DF937B018A01FB0144815581411572
:1006C000510561F1FC01248135812115310531F19C
:1006D0002417350718F10217130718F08901015084
:1006E0001109FC01A080B180C501DFEFCFEF6501EA
:1006F000C00ED11EC816D906A0F0F7016081718125
:100700000E941F18009769F09C012A193B090217E3
:10071000130710F0D22FC32F0196ECCF8FEF9FEF6E
:1007200002C08D2F9C2FDF91CF911F910F91FF90D1
:10073000EF90DF90CF90BF90AF900895FC0144817F
:100740005581FB0124813581421B530B0C945003CE
:10075000CF93DF93FC0124813581232B71F0FB01C2
:10076000DC01CD91DC9160817181CE010E941F1866
:10077000009719F08C1B9D0B02C08FEF9FEFDF914C
:10078000CF9108950F931F93CF93DF93EC0188814E
:100790009981009729F02A813B812617370788F431
:1007A0008B016F5F7F4F0E941717009761F099834D
:1007B00088831B830A832C813D81232B11F4FC0148
:1007C000108281E001C080E0DF91CF911F910F91F5
:1007D0000895EF92FF920F931F93CF93DF93EC0155
:1007E0008B016115710551F0CB010E94CA147C0187
:1007F000BC01CE010E94C203811104C0CE010E943F
:10080000330307C0FD82EC82B801888199810E9480
:10081000C314CE01DF91CF911F910F91FF90EF9004
:100820000895EF92FF920F931F93CF93DF93EC0104
:100830007B018A01BA010E94C203811104C0CE016A
:100840000E94330307C01D830C83B70188819981FF
:100850000E940918CE01DF91CF911F910F91FF9057
:10086000EF900895CF93DF93EC016115710559F076
:10087000FB0101900020E9F73197AF01461B570BB0
:100880000E94110402C00E943303CE01DF91CF9178
:100890000895FC01808191810C947F160F931F9322
:1008A000CF93DF93CDB7DEB762970FB6F894DEBF74
:1008B0000FBECDBF8C01CB01F801118210821382D3
:1008C00012821582148250E0BE016F5F7F4F0E943A
:1008D000D314BE016F5F7F4FC8010E94320462963D
:1008E0000FB6F894DEBF0FBECDBFDF91CF911F9141
:1008F0000F910895FC0111821082138212821582D9
:1009000014826115710551F0FB0101900020E9F797
:100910003197AF01461B570B0C9411040895BF92F9
:10092000CF92DF92EF92FF920F931F93CF93DF93BB
:100930007C016B018A01E9012417350720F4812F1E
:100940008901C42FD82F67E871E0C7010E947A049B
:10095000D60114968D919C91159708171907D0F41C
:100960008C179D0708F4EC01D601ED91FC911197CD
:10097000EC0FFD1FB08010824D915C91BA01600FA9
:10098000711FC7010E943204D601ED91FC91EC0F5A
:10099000FD1FB082C701DF91CF911F910F91FF9092
:1009A000EF90DF90CF90BF900895DC01ED91FC9126
:1009B000DB0114964D915C9115976D917C910280AD
:1009C000F381E02D0994EF92FF920F931F93CF9341
:1009D000DF938C017B01C0E0D0E0F701EC0FFD1F3D
:1009E0006491662361F0D801ED91FC910190F08152
:1009F000E02DC8010995892B11F02196EECFCE018B
:100A0000DF91CF911F910F91FF90EF9008956115A5
:100A1000710579F0FB0101900020E9F73197AF01F2
:100A2000461B570BDC01ED91FC910280F381E02D18
:100A3000099480E090E008954F925F926F927F92C8
:100A4000EF92FF920F931F93CF93DF93CDB7DEB753
:100A5000A1970FB6F894DEBF0FBECDBF7C01FA019F
:100A6000CB0119A2223008F42AE08E010F5D1F4F3E
:100A7000422E512C612C712CBF01A30192010E94C6
:100A8000B315F901CA01015011096A3014F4605D0F
:100A900001C0695CD8016C93232B242B252B61F7B3
:100AA000B801C7010E940705A1960FB6F894DEBFF2
:100AB0000FBECDBFDF91CF911F910F91FF90EF90AF
:100AC0007F906F905F904F9008950C9407051F9250
:100AD0000F920FB60F9211242F933F934F935F9372
:100AE0006F937F938F939F93AF93BF93EF93FF93F6
:100AF00085EB91E00E947402FF91EF91BF91AF915D
:100B00009F918F917F916F915F914F913F912F9125
:100B10000F900FBE0F901F9018951F920F920FB657
:100B20000F9211242F938F939F93EF93FF93E09154
:100B3000C501F091C6018081E091CB01F091CC011B
:100B400082FD12C090818091CE018F5F8F732091C2
:100B5000CF01821751F0E091CE01F0E0EB54FE4F4F
:100B6000958F8093CE0101C08081FF91EF919F917D
:100B70008F912F910F900FBE0F901F90189590E0BE
:100B8000FC01EB59FC4F3491FC01E956FC4F2491D8
:100B9000FC01ED57FC4FE491EE2309F43BC03323F5
:100BA00039F1333091F038F43130A9F0323001F5B9
:100BB00084B58F7D12C0373091F03830A1F03430D9
:100BC000B9F4809180008F7D03C0809180008F7781
:100BD000809380000DC084B58F7784BD09C080915B
:100BE000B0008F7703C08091B0008F7D8093B000FC
:100BF000F0E0EE0FFF1FE55AFC4FA591B4918FB7BF
:100C0000F894EC91611103C020952E2301C02E2B86
:100C10002C938FBF0895CF93DF93EC0160E08E811A
:100C20000E94BF0561E08E810E94BF0560E08E8159
:100C30000E94BF058BE891E00197F1F7DF91CF911A
:100C40000895CF93DF9390E0FC01E956FC4F249187
:100C5000FC01ED57FC4F8491882361F190E0880FEF
:100C6000991FFC01EF5AFC4FC591D491FC01E55A44
:100C7000FC4FA591B491611109C09FB7F894888188
:100C8000209582238883EC912E230BC0623061F47F
:100C90009FB7F8943881822F809583238883EC91C5
:100CA0002E2B2C939FBF06C08FB7F894E8812E2B74
:100CB00028838FBFDF91CF9108958E3008F08E503A
:100CC0008770806480937C0080917A008064809338
:100CD0007A0080917A0086FDFCCF80917800209187
:100CE000790090E0922B08958F929F92AF92BF92DD
:100CF000CF92DF92EF92FF926B017C010E9408037A
:100D00004B015C01C114D104E104F104F1F00E9433
:100D10000803DC01CB0188199909AA09BB09883E9F
:100D20009340A105B10570F321E0C21AD108E10892
:100D3000F10888EE880E83E0981EA11CB11CC11436
:100D4000D104E104F10419F7DDCFFF90EF90DF90BB
:100D5000CF90BF90AF909F908F9008951F920F9269
:100D60000FB60F9211242F933F938F939F93AF93BE
:100D7000BF938091A5019091A601A091A701B09188
:100D8000A8013091A40123E0230F2D3720F4019610
:100D9000A11DB11D05C026E8230F0296A11DB11D9E
:100DA0002093A4018093A5019093A601A093A7018D
:100DB000B093A8018091A9019091AA01A091AB01E3
:100DC000B091AC010196A11DB11D8093A901909332
:100DD000AA01A093AB01B093AC01BF91AF919F91D9
:100DE0008F913F912F910F900FBE0F901F901895EC
:100DF000CF92DF92EF92FF920F931F93CF93DF93E7
:100E00007C016C0187E0C80ED11CC0E0D0E0062F49
:100E100010E0B8010C2E02C0759567950A94E2F7B0
:100E20006170F60181916F010E94BF052196C43067
:100E3000D10579F7C701DF91CF911F910F91FF90F5
:100E4000EF90DF90CF900C940B06CF92DF92EF9251
:100E5000FF920F931F93CF93DF93EC01F62E642F35
:100E60008C810E94BF058D818F3F19F060E00E9448
:100E7000BF058F850F2D10E084FF25C06E0187E030
:100E8000C80ED11CE12CF12CB8010E2C02C07595B6
:100E900067950A94E2F76170F60181916F010E94F3
:100EA000BF05FFEFEF1AFF0A88E0E816F10461F7CB
:100EB000CE01DF91CF911F910F91FF90EF90DF90C6
:100EC000CF900C940B06B80184E0759567958A95D0
:100ED000E1F7CE010E94F8066F2DCE01DF91CF9190
:100EE0001F910F91FF90EF90DF90CF900C94F80638
:100EF00041E00E94250781E090E0089540E00C94D5
:100F0000250761E00E947E078BE39FE10197F1F7DF
:100F10000895AF92BF92CF92DF92EF92FF920F931C
:100F20001F93CF93DF931F92CDB7DEB75C017B0198
:100F30008B016C0188E0C80ED11CF80161918F0112
:100F4000C50169830E9434156981681719F0C501CC
:100F50000E943C15FFEFAF1ABF0AAC14BD0469F73D
:100F6000C7010F90DF91CF911F910F91FF90EF90EC
:100F7000DF90CF90BF90AF90089560E08CE00E942A
:100F8000BF0560E08DE00C94BF05EF92FF920F93D8
:100F90001F93CF93DF9388E592E00E948107C09171
:100FA00001018AE0C89FE00111240CE911E07801F9
:100FB000CC59D140CE018E0D9F1D0E943415F701F2
:100FC00081937F01F4EAEF16F1E0FF0699F763E3FE
:100FD00073E085EB91E00E94E3044091010150E051
:100FE00060E070E02AE085EB91E00E941C0562E27F
:100FF00073E085EB91E00E94E304C0E07801F80122
:10100000408150E060E070E020E185EB91E00E94DB
:101010001C05C73039F066E571E085EB91E00E9470
:10102000650502C00E94530A61E08C2F880F0E9460
:101030003E0A0F5F1F4FF701408150E060E070E013
:1010400020E188E592E00E941C05CF5FC830B1F630
:1010500060E080E00E943E0A61E473E088E592E08F
:101060000E94E30460E08EE00E943E0A409101018C
:1010700050E060E070E02AE088E592E00E941C0504
:1010800068EC70E080E090E0DF91CF911F910F91CC
:10109000FF90EF900C947406AF92BF92CF92DF92C4
:1010A000EF92FF920F931F93CF93DF9380910201F2
:1010B0008130F1F48CEC0E94680A0E94920A83E36A
:1010C0000E94680A809102018130F9F48BEF92E06E
:1010D0000E94590A1AC0129282E0E337F807D9F742
:1010E00061E08CE00E94BF0560E08DE00E94BF05DA
:1010F0000E94C90A8111DECF10927B0210927D02FC
:1011000010927C02EBE7F2E0E6CF8CEC0E94680ADA
:101110000E94920A81ED0E94680A60E08BE00E94C2
:10112000BF0561E08BE00E9421068BEE90E0019705
:10113000F1F760E08BE00E94210661E08BE00E9405
:10114000BF056AE070E080E090E00E94740662E70C
:1011500071E085EB91E00E9465058CEC0E94680AC5
:101160000E94920A85ED0E94680A809102018130F6
:1011700021F488E0EDE0F1E00BC0823021F488E05A
:10118000ECE9F1E005C0833049F488E0E8E8F1E0FB
:10119000A4E9B1E001900D928A95E1F704E911E02C
:1011A000C0E09BEEE92EF12C5801F801D08188E0D7
:1011B000C82ED12C60E08BE0D0FF0AC00E94BF0592
:1011C00061E08BE00E942106C7010197F1F706C09C
:1011D0000E94BF0561E08BE00E94210660E08BE089
:1011E0000E94210661E08BE00E94BF056AE070E08A
:1011F00080E090E00E947406D695F1E0CF1AD10805
:10120000C9F60F5F1F4FF501408150E060E070E0CC
:1012100020E185EB91E00E941C05C73031F066E5C6
:1012200071E085EB91E00E946505CF5FC83009F061
:10123000BBCF0E94530A0E94920A81ED0E94680A65
:1012400060E08BE00E94BF0561E08BE00E94210618
:1012500083E290E00197F1F760E08BE00E942106C5
:1012600061E08BE00E94BF056AE070E080E090E002
:101270000E94740682E080930201DF91CF911F915A
:101280000F91FF90EF90DF90CF90BF90AF900C94B4
:10129000BD0790917002E0917102F0917202392FB6
:1012A000309580FF13C0F8942281832F822382839C
:1012B0008181892B8183A3E2B0E01197F1F78281CC
:1012C000982B9283789487ED90E012C0F894228155
:1012D000832F822382838181892B8183AFEFB0E0CA
:1012E0001197F1F78281982B928378948FE090E0A8
:1012F0000197F1F7089580917002E0917102F091E9
:101300007202F8949181982B91832281982F909565
:1013100029232283A7E0B0E01197F1F721819223DE
:101320009183A3E2B0E01197F1F790817894EFEC0C
:10133000F0E03197F1F7982381E009F480E0089517
:10134000EF92FF920F931F93CF93DF93EC016230E4
:1013500018F08F8588608F876B8B1C8A80E48D8B5B
:1013600080E18E8B80E58F8B61E08C810E9421066D
:101370008D818F3F19F061E00E94210661E08E812E
:101380000E9421067E0187E0E80EF11C00E010E0DB
:101390008F8584FD03C084E090E002C088E090E087
:1013A000081719074CF461E0F70181917F010E9451
:1013B00021060F5F1F4FECCF8BE39DE00197F1F704
:1013C00060E08C810E94BF0560E08E810E94BF05B5
:1013D0008D818F3F19F060E00E94BF056F8564FD2D
:1013E0001DC063E0CE010E94F8060BE416E4C801BC
:1013F0000197F1F763E0CE010E94F806C80101975A
:10140000F1F763E0CE010E94F80683E592E00197D0
:10141000F1F762E0CE010E94F80616C06062CE01CC
:101420000E947E078BE496E40197F1F76F85606276
:10143000CE010E947E0783E592E00197F1F76F8568
:101440006062CE010E947E076F856062CE010E94BD
:101450007E0784E0888B6CE0CE010E947E07CE017F
:101460000E94810782E0898B66E0CE01DF91CF91F7
:101470001F910F91FF90EF900C947E07643008F05D
:1014800063E090916B02691710F06FEF690FE62F20
:10149000F0E0E85AFD4F9489682F690F606888E58D
:1014A00092E00C947E0765E871E085EB91E00C9486
:1014B0000705CF93DF93BC0185EB91E00E94E30425
:1014C000EC010E94530A8C0F9D1FDF91CF9108956C
:1014D0000F931F93CF93DF93082FC8E0D0E011E064
:1014E00081E0912F902309F480E00E944909110FB7
:1014F0002197B1F7F894E0917102F0917202918115
:1015000080917002809598239183E0917102F0910F
:1015100072029281892382837894DF91CF911F9107
:101520000F91089590917002E0917102F091720212
:10153000F8948181292F20958223818378948DE7E7
:1015400043E050E0815021F1DA011197F1F7308149
:101550003923C1F3F8948281822382838181892B8C
:1015600081837894ABE7B7E01197F1F7F894818124
:1015700028232183A3E1B1E01197F1F7808198231B
:1015800081E009F080E07894E3E6F6E03197F1F746
:101590000895FF920F931F93CF93DF9380917D0265
:1015A000811104C00E94920A811108C010927B022E
:1015B00010927D0210927C0280E05EC080EF0E945B
:1015C000680AD1E000E0F12CC1E00E947B09182FED
:1015D0000E947B09113019F48130C1F433C0202FEF
:1015E00030E018131DC080917B02C81738F4F90150
:1015F000E059FD4F83818D2349F402C0C81731F0B3
:1016000010E0C93060F4C0937C0209C0E02FF0E024
:10161000E059FD4F83818D2B838311E009C0FC2E9F
:10162000F901E059FD4F93818D2F809589238383A4
:10163000812F0E944909CF5FDD0F11F40F5FD1E0C8
:10164000083018F2C13408F4B1CFF0927B02F110E7
:1016500003C081E080937D0280917302882309F4A6
:10166000A5CFA3E7B2E0EDEAF1E08D91819381E0AF
:10167000E53BF807D1F781E0DF91CF911F910F9102
:10168000FF9008954F925F926F927F928F929F92F8
:10169000AF92BF92CF92DF92EF92FF920F931F9380
:1016A000CF93DF938090560290905702811491045B
:1016B00009F4E8C0FC01648075806114710409F4C8
:1016C000E1C08B017C01FB01C480D580C618D7081E
:1016D000C0915202D0915302C114D104C1F4F70158
:1016E00060817181CE010E941F18EC01892B09F4E1
:1016F000C9C0F8016081718144815581CE010E9489
:10170000EE17F80184819581C80FD91FE8CFD7FE65
:1017100002C05E0106C0FC01408051805401CE0130
:1017200044C0F70160817181C5010E941F184C01FE
:10173000892B39F134016A187B08A301B501CE0168
:101740000E94EE17C60DD71DF8016081718144819A
:101750005581CE010E94EE17F80184819581C80F52
:10176000D91FF701A480B580A80CB91C809156023E
:10177000909157028C0D9D1D9093570280935602B5
:10178000D0CFB501CE01DF91CF911F910F91FF9086
:10179000EF90DF90CF90BF90AF909F908F907F9011
:1017A0006F905F904F900C940918B2010E941F181F
:1017B000009729F0860D971DAC0CBD1CF6CFA81420
:1017C000B90409F45FC080915402909155028A15C2
:1017D0009B0588F4B5016F5F7F4FCE010E941717FC
:1017E000009709F44FC09093530280935202B09235
:1017F0005502A09254024091560250915702415016
:10180000510957FD3FC0B70182E592E00E945003A5
:10181000EC0197FD37C08091520290915302F7017D
:10182000248135812C0F3D1F820F931F409156025A
:1018300050915702421B530BBC018C0D9D1D0E9401
:10184000F71780915602909157028C0D9D1D909331
:101850005702809356022091520230915302F901AF
:10186000E80FF91F10828091520290915302F80103
:1018700060817181448155818C0F9D1F0E94EE17FC
:10188000AE01BDCFDF91CF911F910F91FF90EF90EF
:10189000DF90CF90BF90AF909F908F907F906F9090
:1018A0005F904F900895CF93DF93CDB7DEB7C354C9
:1018B000D1090FB6F894DEBF0FBECDBF789484B5C2
:1018C000826084BD84B5816084BD85B5826085BD3C
:1018D00085B5816085BD80916E00816080936E00CA
:1018E00010928100809181008260809381008091BC
:1018F000810081608093810080918000816080936D
:1019000080008091B10084608093B1008091B0002C
:1019100081608093B00080917A00846080937A0027
:1019200080917A00826080937A0080917A00816051
:1019300080937A0080917A00806880937A00109278
:10194000C100E091C501F091C60182E08083E09181
:10195000C101F091C2011082E091C301F091C40174
:101960008FEC80831092CD01E091C901F091CA0102
:1019700086E08083E091C701F091C8018081806199
:101980008083E091C701F091C801808188608083E5
:10199000E091C701F091C801808180688083E09167
:1019A000C701F091C80180818F7D808385E00E940E
:1019B0005D06BC01990F880B990B611571058105B6
:1019C000910511F00E94931461E08CE00E942106C1
:1019D00061E08DE00E94210661E08AE00E9421061C
:1019E000609100018AE00E94BF0562E088E592E014
:1019F0000E94A00985E990E00E94590A0E94530ABA
:101A00000E944C0860E080E00E943E0A65E870E0B9
:101A100088E592E00E94E30461E080E00E943E0AD3
:101A200064E770E088E592E00E94E30468EB7BE005
:101A300080E090E00E9474060E94C5078DEA91E064
:101A400057E0252E280E8E010F5E1F4F6BE6E62E07
:101A500061E0F62E27E0200F24962FAF249780E038
:101A60000E945D068C3391050CF05FC0809193015C
:101A70008230C1F461E080E00E943E0A6AE571E0D4
:101A800088E592E00E94650561E089E00E943E0AD7
:101A900063E371E088E592E00E94650581E0809350
:101AA00092011EC188E592E00E94810760E080E01B
:101AB0000E943E0A6DEB70E088E592E00E94E3042C
:101AC00060E08EE00E943E0A4091010150E060E03B
:101AD00070E02AE088E592E00E941C0568EC70E066
:101AE00080E090E00E94740681E08093930161E0C1
:101AF00080E00E943E0A64EB70E088E592E00E947C
:101B0000E30461E089E00E943E0A6BEA70E088E548
:101B100092E00E94E30468EC70E080E090E00E94B4
:101B2000740682E080939301DBC0883C9105A4F4A5
:101B300082E0809302010E94BD0780919301823070
:101B400021F4109293011092920180910101833649
:101B500008F0C6C08F5F17C08039E1E09E07B4F47B
:101B600082E0809302010E94BD0780919301823040
:101B700021F4109293011092920180910101823020
:101B800008F4AEC081508093010183C08835F2E033
:101B90009F07C4F5D090930122E0D21217C061E0F4
:101BA00089E00E943E0A6AE571E088E592E00E94C1
:101BB000650561E080E00E943E0A63E371E088E52C
:101BC00092E00E946505D09292018AC0D11084C033
:101BD00080919201811180C080910001811104C027
:101BE00081E08093000102C0109200016CE271E07C
:101BF00080E090E00E947406609100018AE00E94FB
:101C0000BF056EC0803293400CF06AC08091930192
:101C1000823009F041C080919201813029F4109204
:101C200093011092920135C0823009F051C0109298
:101C30009301109292018091010168E871E0FAE04D
:101C40008F9FC00111240E94890762EF70E085EB2D
:101C500091E00E94E3044091010150E060E070E0F7
:101C60002AE085EB91E00E941C058DED90E00E943A
:101C7000590A61E080E00E943E0A6DEC70E088E560
:101C800092E00E94E30468EE73E080E090E00E943E
:101C900074060E94C50724C081111AC08091920168
:101CA000811116C060E00E943E0A6AEE72E088E58B
:101CB00092E00E94E30460E080E00E943E0A6BED47
:101CC00072E088E592E00E94E3040E944C0808C09C
:101CD000109293011092920188E592E00E94810790
:101CE0000E94C90A811114C010927B0210927D02D9
:101CF00010927C02EBE7F2E0129222E0E337F20767
:101D0000D9F762E370E080E090E00E9474067AC048
:101D100065E371E085EB91E00E94650588E592E05E
:101D20000E94810760E080E00E943E0A67E471E063
:101D300088E592E00E94650538E8C32E31E0D32E95
:101D40004DEAA42E41E0B42E312C3501F50141912C
:101D50005F0150E060E070E020E185EB91E00E94DF
:101D60001C054601F3018081F6018083F7E03F16F0
:101D700019F066E571E002C068E571E085EB91E07D
:101D80000E94650561E0832D880F0E943E0A2FEFB7
:101D9000C21AD20AF401408150E060E070E020E114
:101DA00088E592E00E941C053394F8E03F12CDCF05
:101DB000ADEAB1E0D12C2A1649F0ED914E2F4D2518
:101DC000E42FF0E0E050FF4FD490F5CF6CE571E0E8
:101DD00085EB91E00E9465054D2D50E060E070E0DC
:101DE00020E185EB91E00E941C050E94530A83E0EC
:101DF0008093020160E08CE00E94BF0561E08DE00D
:101E00000E94BF0585EB91E00E945E02892B09F4D8
:101E100091C485EB91E00E945E02892B81F185EBF4
:101E200091E00E943C028093910189831A82C090C4
:101E30005602D09057022FEFC21AD20AB60182E59D
:101E400092E00E94C203882399F0209152023091BF
:101E500053028091560290915702BE016F5F7F4FEF
:101E6000820F931F0E940918D0925702C092560207
:101E700064E170E080E090E00E947406CACF62E501
:101E800072E085EB91E00E94D5040E94530A67E856
:101E900071E0CE0101960E947A0462E671E0C80109
:101EA0000E947A04BE016F5F7F4FC8010E94420BFF
:101EB000C8010E944904CE0101960E94490467E8C6
:101EC00071E0CE0101960E947A0466E871E0C801D3
:101ED0000E947A04BE016F5F7F4FC8010E94420BCF
:101EE000C8010E944904CE0101960E944904C09095
:101EF0005202D0905302C114D10409F052C01A8288
:101F000019821C821B821E821D8263ED72E0CE014B
:101F100001960E94E903BE016F5F7F4F82E592E068
:101F20000E94A8036C01CE0101960E944904D7FCCF
:101F30009FC00E948E142DEF30E040E050E00E94E0
:101F40004A154B015C01F2E08F0E911CA11CB11CE3
:101F5000782C61E472E085EB91E00E94E3042AE0D2
:101F600040E054E060E070E085EB91E00E941C05E9
:101F70008AE392E00E94590A64E272E085EB91E004
:101F80000E94E304B501A40155276627772720E1C5
:101F900085EB91E00E941C050E94530AC12CD12CB4
:101FA0000EC0F6018081882309F4A9CF082E000C09
:101FB000990B0E94E617F60181936F01F2CF672D0E
:101FC000C6010E943C1565E070E080E090E00E9450
:101FD00074062FEFC21AD20AC11484E0D80679F72A
:101FE000A12CB12CC12CD12CC6010E94341587150F
:101FF000B9F066E172E085EB91E00E94E304C6016E
:102000000E943415B601680F711D6C597E4F85EB27
:1020100091E00E9407050E94530A9FEFA91AB90A8E
:1020200065E070E080E090E00E947406EFEFCE1A69
:10203000DE0AC114F4E0DF06B9F660E172E085EB78
:1020400091E00E94E304A114B10409F076C388E092
:1020500092E00E94590A64EF71E080E090E00E94F3
:1020600074060E94530AF50109950E94530A5CC345
:102070001A8219821C821B821E821D8266EC72E00B
:10208000CE0101960E94E903BE016F5F7F4F82E59A
:1020900092E00E94A8036C01CE0101960E944904BF
:1020A000D7FC6EC118AE1FAA1AAE19AE1CAE1BAE7D
:1020B00060915202709153026115710541F0409197
:1020C000560250915702CE01C7960E94110488E52E
:1020D00092E00E94810766E571E0C8010E947A04DF
:1020E000B801CE01C7960E949E034AE0BC01CE0112
:1020F00001960E944E04CE0101960E9445032BAD2D
:102100003CADAB014F5F5F4FBE01695C7F4FCE01BD
:10211000C1960E948F04CE0101960E944904C80115
:102120000E94490469E671E0C8010E947A04B8017E
:10213000CE01C1960E94A8034AE0BC01CE010196DF
:102140000E944E04CE0101960E9445039B0140E08F
:1021500050E0BE016F5C7F4FCE018B960E948F04D2
:10216000CE0101960E944904C8010E944904CE0193
:102170008B960E9445032B013C0169E671E0C80182
:102180000E947A04B801CE01C1960E949E034AE0E3
:10219000BC01CE0101960E944E04CE0101960E9420
:1021A00045034B015C0169E671E0CE014F960E9448
:1021B0007A04BE01615E7F4FCE01C1960E949E03EC
:1021C0004AE0BC01CE0149960E944E04CE014996D8
:1021D0000E94450394012F5E3F4FAB014F5F5F4F5D
:1021E000BE016F5C7F4FCE0185960E948F04CE01A9
:1021F00049960E944904CE014F960E944904CE019F
:1022000001960E944904C8010E944904F4E64F1651
:1022100051046104710408F09EC0C9A4DAA4C11479
:10222000D10439F41982CE0101966C01580148019C
:1022300016C090E1C916D10418F020E1C22ED12CAD
:102240006DA17EA1A601CE0101960E941018E1E0C9
:10225000F0E0EC0FFD1FEC0DFD1D1082E4CF9F920E
:102260008F92FF92EF92DF92CF920E943918E2E0B4
:10227000CE0ED11CFFEF8F1A9F0A0F900F900F9078
:102280000F900F900F90C016D10649F7CE018B9694
:102290000E9445032AE0269FA001279F500D11248C
:1022A000B801CA010E94890766E772E085EB91E0F8
:1022B0000E94E304BE01655D7F4F85EB91E00E94C3
:1022C000D50466E672E085EB91E00E94E304D12C30
:1022D000F50141915F0150E060E070E020E185EBA5
:1022E00091E00E941C05F7E0DF1631F066E571E031
:1022F00085EB91E00E946505D39428E0D212E8CFE7
:102300008FE592E00E94590A60E080E00E943E0A58
:1023100060E572E088E592E00E94E30460E08EE010
:102320000E943E0ABE01655D7F4F88E592E00E94F3
:10233000D50461E080E00E943E0ABE016B5D7F4FE4
:1023400088E592E00E94D50468EB7BE080E090E0B5
:102350000E94740604C08AE492E00E94590A0E9416
:10236000C507CE0185960E944904CE018B960E9436
:102370004904CE01C1960E944904CE01C796D2C13C
:102380001A8219821C821B821E821D826EEB72E0F1
:10239000CE0101960E94E903BE016F5F7F4F82E587
:1023A00092E00E94A8036C01CE0101960E944904AC
:1023B000D7FCBAC11EAE1DAE21961FAE1EAE219730
:1023C00023961FAE1EAE2397609152027091530266
:1023D0006115710541F04091560250915702CE01AE
:1023E000CD960E94110488E592E00E94810766E57F
:1023F00071E0C8010E947A04B801CE01CD960E9416
:102400009E034AE0BC01CE0101960E944E04CE011B
:1024100001960E94450323962EAD3FAD2397AB0155
:102420004F5F5F4FBE01635C7F4FCE01C7960E9436
:102430008F04CE0101960E944904C8010E944904FC
:1024400069E671E0C8010E947A04B801CE01C7961E
:102450000E94A8034AE0BC01CE0101960E944E04EE
:10246000CE0101960E9445039B0140E050E0BE0171
:10247000695C7F4FCE01C1960E948F04CE01019608
:102480000E944904C8010E944904CE01C1960E94DD
:1024900045034B015C016FE671E0CE018B960E9413
:1024A0007A0469E671E0CE0149960E947A04BE0181
:1024B000675E7F4FCE01C7960E949E034AE0BC0133
:1024C000C8010E944E04C8010E9445032B013C0133
:1024D00069E671E0CE0185960E947A04BE016B5DCB
:1024E0007F4FCE01C7960E949E034AE0BC01CE01F9
:1024F0004F960E944E04CE014F960E9445039201D2
:102500002F5E3F4FAB014D5F5F4FBE01695C7F4F58
:10251000CE0101960E948F048D819E8169807A8010
:10252000CFA4D8A861147104B1F00097A1F0C80E2F
:10253000D91EB601CE018B960E94C203882359F0A2
:102540002BA53CA58FA598A9B301820F931F0E94CC
:102550000918D8AACFA6CE0101960E944904CE013F
:102560004F960E944904CE0185960E944904C801F5
:102570000E944904CE0149960E94490484E68816C7
:102580009104A104B10408F0B9C0CFA4D8A8C11423
:10259000D10439F41982FE0131966F0158014801C6
:1025A00016C0F0E1CF16D10418F090E1C92ED12C5D
:1025B0006BA57CA5A601CE0101960E941018E1E052
:1025C000F0E0EC0FFD1FEC0DFD1D1082E4CF9F929B
:1025D0008F92FF92EF92DF92CF920E94391822E001
:1025E000C20ED11C8FEF881A980A0F900F900F908F
:1025F0000F900F900F90C016D10649F7F80180E0B8
:102600005CE8419198E0682F6427282F30E03595E9
:102610002795822F60FF02C0852F82274695915013
:1026200091F724969FAD24979E13EBCF8093900152
:10263000888FCE01C1960E9445032AE0269FA00103
:10264000279F500D1124B801CA010E94890760EB31
:1026500072E085EB91E00E94E304BE016F5C7F4F66
:1026600085EB91E00E94D50460EA72E085EB91E091
:102670000E94E304D12CF50141915F0150E060E03C
:1026800070E020E185EB91E00E941C05F7E0DF1689
:1026900031F066E571E085EB91E00E946505D39429
:1026A00028E0D212E8CF89E992E00E94590A60E05E
:1026B00080E00E943E0A6AE872E088E592E00E94AB
:1026C000E30460E08EE00E943E0ABE016F5C7F4F33
:1026D00088E592E00E94D50461E080E00E943E0A15
:1026E000BE01655D7F4F88E592E00E94D50468EBEE
:1026F0007BE080E090E00E94740604C084E892E0F1
:102700000E94590A0E94C507CE018B960E94490477
:10271000CE01C1960E944904CE01C7960E94490489
:10272000CE01CD960E94490467E871E082E592E00F
:102730000E9432040E94FE0292C980E092E00E9450
:10274000590A93CC82E592E00C9449041092B801A6
:102750001092B70188EE93E0A0E0B0E08093B90159
:102760009093BA01A093BB01B093BC0189E191E0C1
:102770009093B6018093B50185EC90E09093C201EF
:102780008093C10184EC90E09093C4018093C301D5
:1027900080EC90E09093C6018093C50181EC90E0BD
:1027A0009093C8018093C70182EC90E09093CA0196
:1027B0008093C90186EC90E09093CC018093CB018B
:1027C0001092CE011092CF011092D0011092D1013F
:1027D00060E08BE00E942106E2EAF3E0E491E093FE
:1027E0007002EEE8F3E0E491F0E0EE0FFF1FE7582F
:1027F000FC4F859194919093720280937102109294
:102800007B0210927D0210927C02EBE7F2E01292C2
:1028100082E0E337F807D9F710925B0210925A0270
:102820008BE291E0909359028093580288E0809364
:102830005C028FEF80935D0289E080935E0284E00A
:1028400080935F0285E08093600286E0809361025E
:1028500087E08093620210926302109264021092E9
:102860006502109266021092670261E088E592E0CC
:102870000E94A00967E871E082E592E00C947A0476
:102880008F929F92AF92BF92CF92DF92EF92FF9280
:10289000CF93DF93EC01688179818A819B816115F7
:1028A00071058105910521F464E279ED8BE597E0EE
:1028B0002DE133EF41E050E00E944A1549015A01F1
:1028C0009B01AC01A7EAB1E40E9469156B017C0190
:1028D000ACEEB4EFA50194010E947715DC01CB01A9
:1028E0008C0D9D1DAE1DBF1DB7FF03C00197A10933
:1028F000B04888839983AA83BB83BC01CD019F77AD
:10290000DF91CF91FF90EF90DF90CF90BF90AF908D
:102910009F908F9008950E944014089583E091E065
:102920000E94401408956093030170930401809302
:1029300005019093060108951F93FC0199278827AC
:10294000BC01E89411911032E9F3193010F01E30F7
:10295000C8F31B3251F01D3249F4689406C00E943E
:10296000E914610F711D811D911D119110531A30D1
:10297000B0F33EF490958095709561957F4F8F4FA1
:102980009F4F1F910895FB01DC0105900D920020DF
:10299000E1F70895FC0105900020E9F780959095F6
:1029A0008E0F9F1F08954532510520F4423010F0DC
:1029B0000C94DE14FB011082CB010895BB274A3032
:1029C00031F4992322F4BDE2909581959F4F0C94A8
:1029D000FF14592F482F372F262F660F771F881F78
:1029E000991F660F771F881F991F620F731F841F1F
:1029F000951F660F771F881F991F0895BB27FB013E
:102A00005527AA27880F991FAA1FA41710F0A41BE7
:102A100083955051B9F7A05DAA3308F0A95DA19341
:102A2000009779F7B111B1931192CB010C94211554
:102A300091110C943115803219F089508550C8F7E6
:102A40000895DC01FC01672F71917723E1F732973C
:102A500004C07C916D9370836291AE17BF07C8F379
:102A60000895992788270895F999FECF92BD81BDD1
:102A7000F89A992780B50895262FF999FECF1FBAA5
:102A800092BD81BD20BD0FB6F894FA9AF99A0FBE97
:102A900001960895052E97FB1EF400940E9461157F
:102AA00057FD07D00E94B31507FC03D04EF40C94D9
:102AB000611550954095309521953F4F4F4F5F4F91
:102AC000089590958095709561957F4F8F4F9F4F9A
:102AD00008950E94D515A59F900DB49F900DA49FB9
:102AE000800D911D11240895B7FF0C9469150E9463
:102AF0006915821B930B08952F923F924F925F921C
:102B00006F927F928F929F92AF92BF92CF92DF92FD
:102B1000EF92FF920F931F93CF93DF93CDB7DEB762
:102B2000CA1BDB0B0FB6F894DEBF0FBECDBF0994F6
:102B30002A88398848885F846E847D848C849B844D
:102B4000AA84B984C884DF80EE80FD800C811B815B
:102B5000AA81B981CE0FD11D0FB6F894DEBF0FBE8A
:102B6000CDBFED010895A1E21A2EAA1BBB1BFD01EA
:102B70000DC0AA1FBB1FEE1FFF1FA217B307E4075C
:102B8000F50720F0A21BB30BE40BF50B661F771FB4
:102B9000881F991F1A9469F7609570958095909594
:102BA0009B01AC01BD01CF010895A29FB001B39F6D
:102BB000C001A39F700D811D1124911DB29F700D46
:102BC000811D1124911D0895EE0FFF1F0590F491B2
:102BD000E02D0994CF93DF938230910510F482E0C9
:102BE00090E0E0918002F091810220E030E0C0E0CE
:102BF000D0E0309711F14081518148175907C0F05A
:102C00004817590761F482819381209719F09B83BB
:102C10008A832BC0909381028093800226C0211565
:102C2000310519F04217530718F49A01BE01DF016C
:102C3000EF010280F381E02DDCCF2115310509F190
:102C4000281B390B2430310590F412968D919C91FC
:102C500013976115710521F0FB019383828304C0F2
:102C60009093810280938002FD01329644C0FD0161
:102C7000E20FF31F81939193225031092D933C93DE
:102C80003AC020917E0230917F02232B41F42091A3
:102C9000090130910A0130937F0220937E02209136
:102CA0000701309108012115310541F42DB73EB7D8
:102CB00040910B0150910C01241B350BE0917E02D9
:102CC000F0917F02E217F307A0F42E1B3F0B2817A9
:102CD000390778F0AC014E5F5F4F2417350748F095
:102CE0004E0F5F1F50937F0240937E02819391931A
:102CF00002C0E0E0F0E0CF01DF91CF9108950F93A3
:102D00001F93CF93DF93009709F48CC0FC01329797
:102D10001382128200918002109181020115110527
:102D200081F420813181820F931F20917E023091A6
:102D30007F022817390779F5F0937F02E0937E022E
:102D400071C0D80140E050E0AE17BF0750F41296B2
:102D50002D913C911397AD012115310509F1D90150
:102D6000F3CF9D01DA013383228360817181860F65
:102D7000971F8217930769F4EC0128813981260F88
:102D8000371F2E5F3F4F318320838A819B8193833E
:102D90008283452B29F4F0938102E093800242C0A4
:102DA0001396FC93EE931297ED01499159919E0170
:102DB000240F351FE217F30771F480819181840F8E
:102DC000951F029611969C938E9382819381139600
:102DD0009C938E931297E0E0F0E0D80112968D91CB
:102DE0009C911397009719F0F8018C01F6CF8D9103
:102DF0009C9198012E5F3F4F820F931F20917E027E
:102E000030917F022817390769F4309729F410921E
:102E100081021092800202C01382128210937F02FC
:102E200000937E02DF91CF911F910F910895A0E052
:102E3000B0E0EDE1F7E10C948015EC01009721F48E
:102E4000CB010E94EA15B8C0FC01E60FF71F9C01F8
:102E500022503109E217F30708F4ACC0D9010D91F3
:102E60001C91119706171707B0F00530110508F4EB
:102E70009FC0C80104978617970708F499C00250AD
:102E80001109061B170B019311936D937C93CF01CE
:102E90000E947F168DC05B01A01AB10A4C01800E02
:102EA000911EA0918002B091810240E050E0E12C9F
:102EB000F12C109709F44AC0A815B905D1F56D9009
:102EC0007C901197630182E0C80ED11CCA14DB0408
:102ED00080F1A3014A195B096A0182E0C80ED11C86
:102EE0001296BC9012971396AC91B5E0CB16D10414
:102EF00040F0B282A38351834083D9016D937C93C8
:102F00000AC00E5F1F4FC301800F911FF90191830B
:102F10008083EB2DFA2FE114F10431F0D7011396E1
:102F2000FC93EE93129744C0F0938102E0938002E9
:102F30003FC08D919C9111974817590708F4AC0137
:102F40007D0112960D90BC91A02DB3CF80917E0291
:102F500090917F0288159905E1F446175707C8F448
:102F60008091070190910801009741F48DB79EB7B9
:102F700040910B0150910C01841B950BE817F90748
:102F8000C8F4F0937F02E0937E02F90171836083BD
:102F90000FC0CB010E94EA157C01009759F0A801EF
:102FA000BE010E94EE17CE010E947F16C70104C029
:102FB000CE0102C080E090E0CDB7DEB7EEE00C9429
:102FC0009C1581E090E0F8940C94621B9111089597
:102FD00081548A5108F4805E855A0895FB01DC0112
:102FE00002C001900D9241505040D8F708956817E3
:102FF000790768F4FB01DC01E40FF51FA40FB51F8E
:1030000002C002900E9241505040D8F708950C949F
:10301000EE17FB01DC0101900D920020E1F708950D
:10302000FB01DC014150504048F001900D9200201E
:10303000C9F701C01D9241505040E0F70895FB01CF
:1030400051915523A9F0BF01DC014D914517411164
:10305000E1F759F4CD010190002049F04D91401560
:103060004111C9F3FB014111EFCF81E090E00197DD
:103070000895AEE0B0E0EFE3F8E10C948C1585E044
:103080008C838B899C899A838983AE01495E5F4FCB
:103090006D897E89CE0101960E94D2192E96E2E0BA
:1030A0000C94A81520FD09C0FC0123FD05C022FFDA
:1030B00002C07383628351834083089544FD10C02E
:1030C00046FD10C0DB01FC01AA0FBB1FEE1FFF1F56
:1030D0001094D1F76A0F7B1F8E1F9F1F31E003C032
:1030E00033E001C034E0660F771F881F991F31500D
:1030F000D1F7620F711D811D911D08950F931F93CC
:10310000CF93DF938C01C8010E940B1BEC0197FD4C
:1031100008C00E941815892BB1F7B801CE010E9492
:10312000491BCE01DF91CF911F910F910895A1E02E
:10313000B0E0EDE9F8E10C9482158C01C62E7A011D
:1031400029830E940B1BAC01552729814B32510565
:1031500021F04D32510569F42068CA94C11002C0B3
:1031600080E076C0C80129830E940B1B298197FD4E
:10317000F7CF322F3D7FD32E322F307349F5803376
:1031800039F5BB24BA94BC0C09F44EC0C80129839C
:103190000E940B1B298197FD47C0382F3F7D383592
:1031A00069F48D2D8264D82ECA94CA94CC20E1F1A2
:1031B000C8010E940B1B97FF0BC036C026FF04C03E
:1031C0002D2D2260D22E03C03D2D3261D32ECB2C6B
:1031D000812C912C540120ED280F283080F0D4FE52
:1031E00004C0B8010E94491B1CC02A3040F0D6FE22
:1031F000F8CF2F7D3FEE320F363098F727504D2D08
:10320000C501B4010E945E184B015C018D2D8260E6
:10321000D82ECA94CC2059F0C8010E940B1B97FFEE
:10322000DACFD1FC04C09CCF812C912C5401D7FE65
:1032300008C0B094A09490948094811C911CA11C0F
:10324000B11C2D2DB501A401C7010E94521881E0C7
:103250002196ECE00C949E15A1E2B0E0E2E3F9E1E6
:103260000C9480155C017A01CE0101966C0180E21C
:10327000F60111928A95E9F7F501838040E050E06C
:10328000912C712C70E0A1E0B0E0F90183FC8591F4
:1032900083FE81918F01982F9F01811103C080E0EF
:1032A00090E07CC08E3519F44115510549F1E72FA6
:1032B000F0E0E417F5073CF48D3559F18D3219F43F
:1032C000772001F103C0711001C0982E892F8695D7
:1032D000869586958601080F111D892F87703D01FF
:1032E00001C0660C8A95EAF7F801808186298083FF
:1032F000991559F0991510F49F5FE8CF9150E6CFDA
:1033000071E004C07724739401C0712C4F5F5F4F4C
:10331000BCCF772019F08E8180628E83711103C03B
:103320009924939416C0F6019E012F5D3F4F808132
:1033300080958193E217F307D1F7F2CFE114F104FE
:1033400029F0F7018083C70101967C016150912C1F
:10335000F9F0C50169A30E940B1B69A197FD16C076
:10336000282F269526952695F601E20FF11D20813E
:1033700030E0AC014770552702C0359527954A9536
:10338000E2F720FDDBCFB5010E94491B911087CFEA
:10339000E114F10411F0F7011082C801A196EEE0EA
:1033A0000C949C154F925F927F928F929F92AF9256
:1033B000BF92CF92DF92EF92FF920F931F93CF9322
:1033C000DF931F92CDB7DEB76C012B015A01FC01D0
:1033D00017821682712CF601F380F201F3FC8591BD
:1033E000F3FE8191382F2F01882309F4F3C090E078
:1033F00039830E9418153981892B21F0C6010E945A
:103400007E18E9CF353241F4F201F3FC3591F3FE39
:1034100031912F01353269F4C60139830E940B1BAB
:10342000398197FDD5C03817B1F2B6010E94491B0A
:10343000D1C03A3239F4F3FC3591F3FE31912F01CA
:1034400051E001C050E0420110E020ED230F2A308E
:1034500090F45260612F70E080E090E040E2598388
:103460000E945E18162FF401F3FC3591F3FE3191A2
:103470004F015981EACF052F232F240151FF03C0AB
:10348000111102C0A7C01FEF383619F03C3659F0B1
:1034900011C0F401F3FC2591F3FE21912F01283690
:1034A00049F4052F08600460F201F3FC2591F3FE56
:1034B00021912F01222309F48DC0622F70E088E64C
:1034C00090E029830E94001B2981892B09F482C086
:1034D00000FD07C0F501E080F180C50102965C01A6
:1034E00002C0E12CF12C2E3651F4F60146815781B1
:1034F00060E070E0202FC7010E9452186CCF233685
:1035000091F401FF11E0C6010E940B1B97FD60C002
:10351000E114F10429F0F7018083C70101967C01D1
:10352000115089F751C02B3559F49201A701612F31
:10353000C6010E942C192C01892B09F045C03FC0FF
:10354000C60129830E947E18298197FD41C02F362C
:1035500059F128F4243631F1293649F127C02337AF
:1035600069F02537F9F022C0E114F10429F0F701E0
:103570008082C70101967C01115071F0C6010E9442
:103580000B1B4C0197FD08C00E941815892B61F395
:10359000B601C4010E94491BE114F104A9F0F7012E
:1035A000108212C0006203C0006101C00064202FBD
:1035B000A701612FC6010E949718811105C0F6016D
:1035C0008381807329F406C000FD05CF739403CF77
:1035D000772019F0872D90E002C08FEF9FEF0F90BA
:1035E000DF91CF911F910F91FF90EF90DF90CF90DF
:1035F000BF90AF909F908F907F905F904F90089575
:10360000FC010590061621F00020D9F7C0010895AD
:103610003197CF010895CF93DF93EC012B8120FFE9
:1036200033C026FF0AC02F7B2B838E819F8101969A
:103630009F838E838A8190E029C022FF0FC0E8819A
:10364000F9818081082E000C990B009719F42062F3
:103650002B831AC03196F983E8830EC0EA85FB8577
:10366000099597FF09C02B81019611F080E201C0F6
:1036700080E1822B8B8308C02E813F812F5F3F4FDB
:103680003F832E83992702C08FEF9FEFDF91CF9169
:103690000895FB01238120FF12C026FD10C08F3F3B
:1036A0003FEF930761F082832F7D2064238326817F
:1036B00037812150310937832683992708958FEF69
:1036C0009FEF089511E0C7EDD1E004C0FE010E9414
:0E36D000E4152196C83DD107C9F7F894FFCF45
:1036DE000101010100000000008202800001FFFFD5
:1036EE00FFFFFFFF2F00000000950202022D02DCFB
:1036FE00025E023C02500200000000780702022E19
:10370E00032D032A00526561642069427574746F3B
:10371E006E2049443A2000526561642069427574F6
:10372E00746F6E2049443A00202020004352433AE1
:10373E0020000D00202D3E20002300253278003081
:10374E00310057726974652069427574746F6E200A
:08375E0049443A20000D0A0065
:107E0000112484B714BE81FFF0D085E080938100F7
:107E100082E08093C00088E18093C10086E0809377
:107E2000C20080E18093C4008EE0C9D0259A86E02C
:107E300020E33CEF91E0309385002093840096BBD3
:107E4000B09BFECF1D9AA8958150A9F7CC24DD24C4
:107E500088248394B5E0AB2EA1E19A2EF3E0BF2EE7
:107E6000A2D0813461F49FD0082FAFD0023811F036
:107E7000013811F484E001C083E08DD089C08234E0
:107E800011F484E103C0853419F485E0A6D080C0E4
:107E9000853579F488D0E82EFF2485D0082F10E0AE
:107EA000102F00270E291F29000F111F8ED06801E7
:107EB0006FC0863521F484E090D080E0DECF843638
:107EC00009F040C070D06FD0082F6DD080E0C81688
:107ED00080E7D80618F4F601B7BEE895C0E0D1E017
:107EE00062D089930C17E1F7F0E0CF16F0E7DF06D8
:107EF00018F0F601B7BEE89568D007B600FCFDCFD4
:107F0000A601A0E0B1E02C9130E011968C91119780
:107F100090E0982F8827822B932B1296FA010C0160
:107F200087BEE89511244E5F5F4FF1E0A038BF0790
:107F300051F7F601A7BEE89507B600FCFDCF97BE46
:107F4000E89526C08437B1F42ED02DD0F82E2BD052
:107F50003CD0F601EF2C8F010F5F1F4F84911BD097
:107F6000EA94F801C1F70894C11CD11CFA94CF0C13
:107F7000D11C0EC0853739F428D08EE10CD085E9AC
:107F80000AD08FE07ACF813511F488E018D01DD067
:107F900080E101D065CF982F8091C00085FFFCCF94
:107FA0009093C60008958091C00087FFFCCF809118
:107FB000C00084FD01C0A8958091C6000895E0E648
:107FC000F0E098E1908380830895EDDF803219F02E
:107FD00088E0F5DFFFCF84E1DECF1F93182FE3DFCA
:107FE0001150E9F7F2DF1F91089580E0E8DFEE27F6
:047FF000FF270994CA
:027FFE00040479
:0400000300007E007B
:00000001FF
